:020000040000FA
:08000000803102288731EE2F48
:10000A009231402280319031992080319031BA204A
:10001A0080319031C52080319031A82080319131D2
:10002A00D821080077088039F80078082000A40051
:10003A007735F8007808AB00F61B2B142B08031948
:10004A0034282B0A031D31280030F7000030F6004F
:10005A000030F5000030F400F617F7013C280030B4
:10006A00F7000030F6000030F5000030F4007308A5
:10007A008039F8007808A4067335F8007808AC00CF
:10008A00F21B2C142C08031958282C0A031D552876
:10009A000030F3000030F2000030F1000030F000D0
:1000AA00F217F30160280030F3000030F20000304C
:1000BA00F1000030F0007308720471047004031D2B
:1000CA007F280030F7000030F6000030F5000030DD
:1000DA00F4008030F6047F30F7042408F80078082A
:1000EA00F7047708F3007608F2007508F10074083F
:1000FA00F00008002B08031D8B280030F3000030A5
:10010A00F2000030F1000030F00008002B08F8007F
:10011A00F9017908FB002C087802FA00031CFB039A
:10012A007A087F3EA50000307B3DA6007708A30031
:10013A007608A2007508A1007408A0000030F70034
:10014A000030F6000030F5000030F4000030AA005C
:10015A000030A9000030A8000030A700AC011A3016
:10016A002C020318F0282C080319D2280130A035D4
:10017A00A10DA20DA30D890BBC280130F435F50D94
:10018A00F60DF70D890BC328AA1B74140130A73585
:10019A00A80DA90DAA0D890BCC2873082302031DEB
:1001AA00E02872082202031DE02871082102031DBB
:1001BA00E02870082002031CEB282A177008A00206
:1001CA007108A13B7208A23B7308A33B0130F800F7
:1001DA007808AC07B4282308220421042004031D4C
:1001EA002714F61B0D290130F435F50DF60DF70D20
:1001FA00890BF928AA1B74140130A735A80DA90D7B
:10020A00AA0D890B0229FF30A507FF30A63DF62863
:10021A00AC01AA1F2629FF302705F800FF30280560
:10022A00F900FF302905FA007F302A05FB007B0818
:10023A007A04790478040319741824292629AC014C
:10024A00AC0A2C0803194F290130F4070030F53D98
:10025A000030F63D0030F73D771C4F297408F8004E
:10026A007508F9007608FA007708FB000130FC00EF
:10027A00FB37FA0CF90CF80CFC0B3D297B08F7004C
:10028A007A08F6007908F5007808F4000130A50725
:10029A000030A63D2608803AF80080307802031D17
:1002AA005829FF302502031C6729FF302000A500CA
:1002BA000030A6000030F7000030F6000030F500EC
:1002CA000030F40020002608803AF80080307802D6
:1002DA00031D71290130250203187F292000A50179
:1002EA00A6010030F7000030F6000030F5000030BB
:1002FA00F400A40120002508F8007808AB002B1CA4
:10030A008829F6178C297F30F8007808F6052B36ED
:10031A00F8007808F70072282100BE00BA01BB0174
:10032A00200066082100D000200065082100CF00C7
:10033A00200064082100CE00200063082100CD00BF
:10034A0050082000CA0021004F082000C9002100DF
:10035A004E082000C80021004D082000C7000030C8
:10036A00CE000030CD000030CC000030CB009531FB
:10037A00352581310318DA2901302100BA0000300D
:10038A00BB005008F3004F08F2004E08F1004D0878
:10039A00F0009031B120813173082100D000720839
:1003AA00CF007108CE007008CD002100D301D4011E
:1003BA00220056082100C100220055082100C00071
:1003CA003A083B04031DEC292200591D062A210084
:1003DA003A083B04031DF3292B30F4292D30A400DD
:1003EA000030A50024082000E80068082300A000C7
:1003FA0001302100D3070030D43DFF30C007FF3061
:10040A00C13D21005008F3004F08F2004E08F100E8
:10041A004D08F0009431BD24813170037104031D2D
:10042A005E2A20006708BF3EE800FF30031800304C
:10043A00E900003069021A30031968020318272AF2
:10044A000130282A0030EA00EB016A082100A600E0
:10045A0020006B082100A700260827040319392A5F
:10046A000630F00098303C2A0E30F0009830F10047
:10047A005308A03E9131B9218131FD302100C007D6
:10048A00FF30C13DA0302000E8006808A400210028
:10049A0041082000A600210040082000A5002100F4
:1004AA003E089331B72320002508E4002408E3001E
:1004BA00080021005008F3004F08F2004E08F1002E
:1004CA004D08F0009431BD24813170087104031D78
:1004DA00B62A20006708BF3EE800FF300318003044
:1004EA00E900003069021A300319680203187F2AEA
:1004FA000130802A0030EA00EB016A082100A800D6
:10050A0020006B082100A900280829040319912A50
:10051A000A30F0009830942A1230F0009830F10036
:10052A005308A03E9131B9218131FD302100C00725
:10053A00FF30C13DA0302000E8006808A400210077
:10054A0041082000A600210040082000A500210043
:10055A003E089331B72320002508E4002408E3006D
:10056A0008003F302100D8008030D7000030D60084
:10057A000030D500D101D2015008F3004F08F20033
:10058A004E08F1004D08F0000030F7000030F60088
:10059A000030F5000030F400933121238131031C2F
:1005AA00072B872B41302000B0002030AF000030ED
:1005BA00AE000030AD00210058082000B400210030
:1005CA0057082000B300210056082000B20021007D
:1005DA0055082000B1008B31682381312000300892
:1005EA002100D80020002F082100D70020002E0863
:1005FA002100D60020002D082100D5000130D107A6
:10060A000030D23D210050082000CA0021004F08C6
:10061A002000C90021004E082000C80021004D0812
:10062A002000C7004130B0002030AF000030AE00DB
:10063A000030AD00210058082000B40021005708FE
:10064A002000B300210056082000B20021005508FE
:10065A002000B1008B316823813120003008CE00A0
:10066A002F08CD002E08CC002D08CB00953135255A
:10067A008131031C622BD72A4130F3002030F2006B
:10068A000030F1000030F00021005808F700570848
:10069A00F6005608F5005508F4008031172081311C
:1006AA0073082100D8007208D7007108D6007008B4
:1006BA00D500FF30D107FF30D23D2100500820007D
:1006CA00CA0021004F082000C90021004E0820005E
:1006DA00C80021004D082000C7002100580820004A
:1006EA00CE00210057082000CD0021005608200026
:1006FA00CC00210055082000CB00953135258131E9
:10070A00031C412B20006708E800E9016808F6008D
:10071A006908F7009131F921813176082000EA0051
:10072A006A082100C20042082000E8006808210087
:10073A00BF0067304206031DBE2B2200570858042B
:10074A00031DAB2B0130D7000030D8005808803A7F
:10075A002000E80080306802031DB62B0130220019
:10076A0057020318C12B06302100BC000030BD001F
:10077A00C92B2200D81BB82B220058082100BD0023
:10078A00220057082100BC0067304206031DFC2BDB
:10079A005208803A2000E8007F306802031DD82BF7
:1007AA00FC3021005102031CF62B21003C08FF3EBD
:1007BA002000E800FF3021003D3D2000E9006908E3
:1007CA00803AEA0021005208803A20006A02031D9A
:1007DA00F22B2100510820006802031CF62B663018
:1007EA00F72B65302000E80068082100BF003D08AB
:1007FA00B5003C08B40067304206031D092C663078
:10080A003F060319D21F0D2C0130B4070030B53D45
:10081A0066303F06031D252CD21F1D2C3F30D80001
:10082A008030D7000030D6000030D500D101D20187
:10083A00673042060319252C5108B4075208B53D02
:10084A00CB01CC015008C6004F08C5004E08C400B1
:10085A004D08C3005808A3005708A2005608A10073
:10086A005508A0004C08803A2000E800210035080D
:10087A00803A20006802031D452C210034084B02EF
:10088A000318F62C21005808F3005708F2005608FE
:10089A00F1005508F0004608F7004508F60044083C
:1008AA00F5004308F40080311720813173082000D5
:1008BA00B0007208AF007108AE007008AD00883150
:1008CA00AE208131200030082100CA0020002F0804
:1008DA002100C90020002E082100C80020002D0890
:1008EA002100C7004A08F3004908F2004808F1004D
:1008FA004708F00094315824813171082100B90069
:10090A007008B8004A082000B400210049082000F5
:10091A00B300210048082000B20021004708200047
:10092A00B100210058082000B0002100570820001B
:10093A00AF00210056082000AE0021005508200013
:10094A00AD008B316823813120003008DE002F088A
:10095A00DD002E08DC002D08DB00210046082000FF
:10096A00E200210045082000E1002100440820009F
:10097A00E000210043082000DF0091319A218131F3
:10098A0020005E082100C60020005D082100C50085
:10099A0020005C082100C40020005B082100C3007D
:1009AA004130F3002030F2000030F1000030F00056
:1009BA005808F7005708F6005608F5005508F400DD
:1009CA0080311720813173082100D8007208D700BE
:1009DA007108D6007008D5000130CB070030CC3D35
:1009EA00372C40302000B000A030AF000030AE00FD
:1009FA000030AD00210058082000B400210057083B
:100A0A002000B300210056082000B200210055083A
:100A1A002000B1008B316823813120003008210089
:100A2A00CA0020002F082100C90020002E0821003A
:100A3A00C80020002D082100C70046082000CA006F
:100A4A00210045082000C900210044082000C800F0
:100A5A00210043082000C70021004A082000CE00D8
:100A6A00210049082000CD00210048082000CC00C0
:100A7A00210047082000CB00953135258131031824
:100A8A00492D00302100632D21004608F300450856
:100A9A00F2004408F1004308F0004A08F700490848
:100AAA00F6004808F5004708F40093312123813104
:100ABA00031C6A2D210038186A2D0030CA00003044
:100ACA00C9000030C8000030C70021004A082000D1
:100ADA00CA00210049082000C90021004808200056
:100AEA00C800210047082000C70021005008200044
:100AFA00CE0021004F082000CD0021004E08200022
:100B0A00CC0021004D082000CB008931862181319B
:100B1A0020004A082100C600200049082100C5001B
:100B2A00200048082100C400200047082100C30013
:100B3A002308D8002208D7002108D6002008D500AB
:100B4A0065303F060319AE2D5208B7005108B600AA
:100B5A00B02DB601B701B201B301B001B101CB01A9
:100B6A00CC01CE2E21005808F3005708F20056088F
:100B7A00F1005508F0004608F7004508F600440859
:100B8A00F5004308F40080311720813173082000F2
:100B9A00B0007208AF007108AE007008AD0088316D
:100BAA00AE208131200030082100CA0020002F0821
:100BBA002100C90020002E082100C80020002D08AD
:100BCA002100C7004A08F3004908F2004808F1006A
:100BDA004708F00094315824813171082100B90086
:100BEA007008B8002200591A092E21003808390461
:100BFA00031D092E673042060319B71F092E01305B
:100C0A00B0070030B13D5C2E2100320833040319CD
:100C1A00B71F282E2E302000E80021005308A03EDE
:100C2A008600013087002000680881000130210019
:100C3A00D3070030D43DFF30C007FF30C13D01303B
:100C4A00B2000030B300300831040319462E3030A8
:100C5A002000E80021005308A03E860001308700EA
:100C6A0020006808810001302100D3070030D43DFC
:100C7A00FF30C007FF30C13DFF30B007FF30B13D44
:100C8A00282E3808303E2000E80021005308A03EF4
:100C9A0086000130870020006808810001302100A9
:100CAA00D3070030D43DFF30C007FF30C13D4A08AA
:100CBA002000B400210049082000B30021004808A0
:100CCA002000B200210047082000B1002100580886
:100CDA002000B000210057082000AF00210056086C
:100CEA002000AE00210055082000AD008B3168239A
:100CFA00813120003008DE002F08DD002E08DC00DC
:100D0A002D08DB00210046082000E20021004508EA
:100D1A002000E100210044082000E00021004308EF
:100D2A002000DF0091319A21813120005E082100E4
:100D3A00C60020005D082100C50020005C082100D3
:100D4A00C40020005B082100C3004130F3002030BA
:100D5A00F2000030F1000030F0005808F7005708A0
:100D6A00F6005608F5005508F40080311720813145
:100D7A0073082100D8007208D7007108D6007008DD
:100D8A00D500FF30B607FF30B73D0130CB07003042
:100D9A00CC3D4C08803A2000E80021003508803A12
:100DAA0020006802031DDC2E210034084B020318C0
:100DBA00EC2E21005408803A2000E80080306802B6
:100DCA00031DEA2E4B3021005302031CB72D2100CC
:100DDA0032083304031D052F2200591E052F2E3019
:100DEA002000E80021005308A03E86000130870059
:100DFA0020006808810001302100D3070030D43D6B
:100E0A0021005308A03E8600013087008101653029
:100E1A003F06031DD72F4F30CB000030CC004B08C4
:100E2A00A03E8600013087008101BA01BB01D21FB2
:100E3A00272F0130BA000030BB00D109D209D10AEC
:100E4A000319D20A0230BC000030BD005108520416
:100E5A000319662FFF302100CB07FF30CC3D0A3043
:100E6A00F0000030F1005208F3005108F20092310C
:100E7A00DC2281317008303E2000E80021004B0856
:100E8A00A03E8600013087002000680881000A30F1
:100E9A00F0000030F10021005208F3005108F2007E
:100EAA0094310724813171082100D2007008D100E1
:100EBA00FF30BC07FF30BD3DFF30C007FF30C13DEA
:100ECA002B2F3D08803A2000E80080306802031D7D
:100EDA00712F013021003C0203182F2FFF3021000F
:100EEA00CB07FF30CC3D3A083B04031D7E2F2B3045
:100EFA007F2F2D30AA000030AB002A082000E8001E
:100F0A0021004B08A03E86000130870020006808B7
:100F1A008100FF302100C007FF30C13DFF30CB0701
:100F2A00FF30CC3D20006708BF3EE800FF300318C1
:100F3A000030E900003069021A3003196802031808
:100F4A00A82F0130A92F0030EA00EB016A0821001E
:100F5A00AE0020006B082100AF002E082F04031DED
:100F6A00B82F6530B92F4530AC000030AD002C08E1
:100F7A002000E80021004B08A03E860001308700CF
:100F8A00200068088100FF302100C007FF30C13D02
:100F9A004B08A03EF0000130F1005308A03E913109
:100FAA00B9218131A0302000E8006808A40021009E
:100FBA0041082000A600210040082000A5002100C9
:100FCA003E089331B72320002508E4002408E300F3
:100FDA0008004B3084000130850013309031932093
:100FEA008731A03084000130850050309031932041
:100FFA0020009631462EF1007108F000F00DF00D38
:10100A0021001D087006833970069D001D14080012
:10101A002000A701A801A001A101A601A60A76083D
:10102A008400770885001200203A03192E287608D2
:10103A008400770885000008F73EF800FF3003189F
:10104A000030F900003079020530031978020318DC
:10105A00A6012608F800F9017808A2007908A30079
:10106A0022082304031943280130F6070030F73D0C
:10107A0012280130A0000030A100762876088400EA
:10108A00770885000008F800F9017908003A031981
:10109A004F287A2878082B3A03197628063A031932
:1010AA003E287A2876088400770885000008F80028
:1010BA002808F1002708F0000A30F2000030F30097
:1010CA009131442188317108FA0078087002F900D8
:1010DA00031CFA037908303E2000A70000307A3D4D
:1010EA00A8000130F6070030F73D7608840077083B
:1010FA0085000008D03EF800FF3003180030F900E0
:10110A00003079020A300319780203188E28013058
:10111A008F280030FA00FB017A08A4007B08A5009A
:10112A0024082504031D572820082104031DA92883
:10113A002709F8002809F900F80A0319F90A7808B2
:10114A00F6007908F70008002808F7002708F600D3
:10115A00080022004E082000C00022004D0820008E
:10116A00BF0022004C082000BE0022004B082000CD
:10117A00BD003008C0002F08BF002E08BE002D0891
:10118A00BD003D08B1003E08B2003F08B300400868
:10119A00B4001730B436B30CB20CB10C890BCF289B
:1011AA00FF303105B50000303205B6003508813E02
:1011BA00BB00FF30363DBC003C08803AB1008030AD
:1011CA003102031DEA2817303B02031808002000E9
:1011DA00BC1B4729FF30B100FF30B2007F30B3009B
:1011EA000030B4003B0AFD28B437B30CB20CB10C82
:1011FA00890BF9283408BA003308B9003208B80054
:10120A003108B7003D083705B1003E083805B2007D
:10121A003F083905B30040083A05B40034083304DE
:10122A0032043104031908003D08B1003E08B20037
:10123A003F08B3004008B4001F30B436B30CB20CF8
:10124A00B10C890B222934083304320431040319FE
:10125A0036293708BD073808BE3D3908BF3D3A0868
:10126A00C03D3709B1003809B2003909B3003A095B
:10127A00B4003108BD053208BE053308BF0534087D
:10128A00C0057D293D08B1003E08B2003F08B30001
:10129A004008B4001F30B436B30CB20CB10C890B41
:1012AA0050293408330432043104031D6029003004
:1012BA00C000003078293D08B1003E08B2003F085E
:1012CA00B3004008B4000130B135B20DB30DB40D0E
:1012DA00890B6929340833043204310403197D293E
:1012EA00BF30C0008030BF000030BE000030BD00FB
:1012FA004008B0003F08AF003E08AE003D08AD0010
:10130A00080020004A088039CF004F08D7004A3524
:10131A00CF004F08D900C91B591459080319A3292A
:10132A00590A031DA0290030CA000030C900003044
:10133A00C8000030C700C917CA01AB290030CA006B
:10134A000030C9000030C8000030C7004E0880399C
:10135A00CF004F08D80058085706031D57174E35B7
:10136A00CF004F08D800CD1B581458080319CB29B1
:10137A00580A031DC8290030CE000030CD000030C5
:10138A00CC000030CB00CD17CE01D3290030CE00DF
:10139A000030CD000030CC000030CB005908580294
:1013AA000318192A571FDD298030CF004F08D706A6
:1013BA005908CF004F08DA005808CF004F08D90063
:1013CA005A08CF004F08D8004708CF004F08DA0064
:1013DA004B08CF004F08C7005A08CF004F08CB0070
:1013EA004808CF004F08DA004C08CF004F08C80061
:1013FA005A08CF004F08CC004908CF004F08DA003E
:10140A004D08CF004F08C9005A08CF004F08CD0039
:10141A004A08CF004F08DA004E08CF004F08CA002A
:10142A005A08CF004F08CE00DA015808CF00D00181
:10143A005008D20059084F02D100031CD2035208A7
:10144A00803AD30080305302031D2D2A1A305102EC
:10145A00031C612A20004A08490448044704031966
:10146A00382A0130392A0030CF004F08DA0000301C
:10147A00CA000030C9000030C8000030C700580850
:10148A00CF004F08D900662A5A1C512A5A36013809
:10149A00CF004F08DA00532A0310DA0C4718DA177C
:1014AA000130CF00CA37C90CC80CC70CCF0B572A5A
:1014BA000130CF004F08D907200058085902031CF1
:1014CA00492A571B972A5908031D742A0030CA0053
:1014DA000030C9000030C8000030C70008004B08BF
:1014EA00C7074C08C83D4D08C93D4E08CA3D4A1CAD
:1014FA00112B5A1C862A5A360138CF004F08DA00B7
:10150A00882A0310DA0C4718DA170130CF00CA37D5
:10151A00C90CC80CC70CCF0B8C2A0130CF004F085E
:10152A00D907112B4A08803ACF004E08803A4F0259
:10153A00031DA92A4D084902031DA92A4C0848027D
:10154A00031DA92A4B0847020318E12AFF30CF00DE
:10155A00FF30D000FF30D100FF30D20047084B02E5
:10156A00D30048084C3BD40049084D3BD5004A08F3
:10157A004E3BD6005308CF075408D03D5508D13DFD
:10158A005608D23D5208CA005108C9005008C8007E
:10159A004F08C7008030CF004F08D706DA09DA0AA9
:1015AA005A08031DE92A0130C7070030C83D003038
:1015BA00C93D0030CA3DE92A4B08C7024C08C83B5E
:1015CA004D08C93B4E08CA3B4A0849044804470427
:1015DA00031D0F2B5A08031D0F2B0030CA000030C1
:1015EA00C9000030C8000030C70008000130C73504
:1015FA00C80DC90DCA0D890BFC2ADA1B47145A1CDF
:10160A00082B0314092B0310DA0D590803190F2BA1
:10161A000130D902C91FFB2AD801DA1F1C2B5A082C
:10162A007F39031947181A2B1C2BD801D80A5808D6
:10163A000319482B0130C7070030C83D0030C93DA7
:10164A000030CA3D4A1C482B4708CF004808D00042
:10165A004908D1004A08D2000130D300D237D10C50
:10166A00D00CCF0CD30B332B5208CA005108C90037
:10167A005008C8004F08C700590A0319482B0130FF
:10168A00CF004F08D907590A031D5908031D582BC3
:10169A000030CA000030C9000030C8000030C7005E
:1016AA0059080319D701591C5C2BC917602B7F30C5
:1016BA00CF004F08C9055936CF004F08CA00D71FB7
:1016CA000800CA170800200030088039B50035081C
:1016DA00BA003035B5003508C000AF1B40144008C9
:1016EA000319842B400A031D822B0030B0000030FE
:1016FA00AF000030AE000030AD00AF178C2B0030C9
:10170A00B0000030AF000030AE000030AD00340849
:10171A008039B5003508BA063435B5003508BF003A
:10172A00B31B3F143F080319A72B3F0A031DA52B20
:10173A000030B4000030B3000030B2000030B10015
:10174A00B317AF2B0030B4000030B3000030B20042
:10175A000030B1003F08031D4008031DBD2B0030B7
:10176A00B0000030AF000030AE000030AD0008001D
:10177A002D08B5003508F000330891317B218B31F3
:10178A0071082000C6007008C5004508B500B601FA
:10179A00B701B8013808BE003708BD003608BC00DA
:1017AA003508BB004608B500B601B701B8013808CC
:1017BA00C4003708C3003608C2003508C1002E0825
:1017CA00B5003508F000320891317B218B31710860
:1017DA002000C6007008C5004508B500B601B7016B
:1017EA00B8013508BB073608BC3D3708BD3D380887
:1017FA00BE3D4608B500B601B701B8013508C107B4
:10180A003608C23D3708C33D3808C43D2F08B50025
:10181A003508F000310891317B218B3171082000A5
:10182A00C6007008C5004508B500B601B701B80181
:10183A003508BB073608BC3D3708BD3D3808BE3DF4
:10184A004608B500B601B701B8013508C107360820
:10185A00C23D3708C33D3808C43D0830BB35BC0D0E
:10186A00BD0DBE0D890B332C2E08B5003508F000CE
:10187A00310891317B218B3171082000C600700834
:10188A00C5004508BB074608BC3D0030BD3DBE3D0E
:10189A002D08B5003508F000320891317B218B31D3
:1018AA0071082000C6007008C5004508BB07460835
:1018BA00BC3D0030BD3DBE3D0830BB35BC0DBD0D45
:1018CA00BE0D890B622C2D08B5003508F0003108D1
:1018DA0091317B218B3171082000C6007008C50048
:1018EA004508BB074608BC3D0030BD3DBE3D2E083D
:1018FA00B5003508F000330891317B218B3171082E
:10190A002000C6007008C5004508C1074608C23D48
:10191A000030C33DC43D2F08B5003508F000320839
:10192A0091317B218B3171082000C6007008C500F7
:10193A004508C1074608C23D0030C33DC43D2F08D3
:10194A00B5003508F000330891317B218B317108DD
:10195A002000C6007008C5004508B5004608B60054
:10196A00B701B8010830B535B60DB70DB80D890BFA
:10197A00B82C3508C1073608C23D3708C33D3808B8
:10198A00C43D3B08B5003C08B6003D08B7003E0818
:10199A00B8001830B836B70CB60CB50C890BCF2C7A
:1019AA003508C1073608C23D3708C33D3808C43D6B
:1019BA000830BB35BC0DBD0DBE0D890BDE2C4008B1
:1019CA003F07B500B601B60D3508823EC500FF30A7
:1019DA00363DC600C31B062D0130C135C20DC30DED
:1019EA00C40D890BF22CBE1B41140130BB35BC0D52
:1019FA00BD0DBE0D890BFB2CFF30C507FF30C63D60
:101A0A00EF2CBF01BE1F1F2DFF303B05B500FF3075
:101A1A003C05B600FF303D05B7007F303E05B800F3
:101A2A003808370436043504031941181D2D1F2DB3
:101A3A00BF01BF0A3F080319482D0130C107003012
:101A4A00C23D0030C33D0030C43D441C482D41080E
:101A5A00B5004208B6004308B7004408B800013090
:101A6A00B900B837B70CB60CB50CB90B362D380817
:101A7A00C4003708C3003608C2003508C100013067
:101A8A00C5070030C63D4608803AB50080303502A9
:101A9A00031D512DFF304502031C5D2D7F302000B0
:101AAA00C4008030C3000030C2000030C100872D5E
:101ABA0020004608803AB50080303502031D672DA4
:101ACA00013045020318742D00302000C400003094
:101ADA00C3000030C2000030C100BA01872D2000C7
:101AEA004508B5003508C000FF30C105FF30C20502
:101AFA007F30C3050030C4054018C3174036B5000F
:101B0A003508C4003A08B5003508C4044408B000D2
:101B1A004308AF004208AE004108AD0008002100AA
:101B2A00EB0020006C08860001308700403F21004E
:101B3A00D900413FDA00590884005A08850012008A
:101B4A00253A031DD92F20006C0886000130870032
:101B5A000130810741310318810A2200D501D601DB
:101B6A00D901DA01FF30D700FF30D80020006C0815
:101B7A00860001308700403F2100D900413FDA004A
:101B8A00590884005A08850012002E3A031D4A2E6D
:101B9A002200D701D80120006C0886000130870096
:101BAA000130810741310318810A6C08860001302F
:101BBA008700403F2100D900413FDA0059088400DC
:101BCA005A08850012002A3A031D052E20006C08C7
:101BDA008600013087000130810741310318810AEC
:101BEA006D088600013087000108840001308500F5
:101BFA0002308107003F2200D700013FD8004A2E59
:101C0A0020006C08860001308700403FF600413F03
:101C1A00F70088310D208D3177082200D800760828
:101C2A00D700212E20006C08860001308700013081
:101C3A00810741310318810A20006C0886000130AF
:101C4A008700403F2100D900413FDA00590884004B
:101C5A005A0885000008D03EDB00FF300318003028
:101C6A00DC0000305C020A3003195B0203183F2EC5
:101C7A000130402E0030DD00DE015D08DF005E0825
:101C8A00E0005F086004031D172E20006C08860020
:101C9A0001308700403F2100D900413FDA0059084E
:101CAA0084005A0885000008DB00DC015B08F600A6
:101CBA005C08F7009131F9218D3176082100DD00A9
:101CCA005D08E70067080319AD2E20006C0886003E
:101CDA0001308700403F2100D900413FDA0001303E
:101CEA00590784005A0803185A0A85000008DB00BD
:101CFA00DC015B08F6005C08F7009131F9218D31AF
:101D0A0076082100DD005D08E80068080319AD2E99
:101D1A0020006C08860001308700403F2100D9006E
:101D2A00413FDA000230590784005A0803185A0A58
:101D3A0085000008DB00DC015B08F6005C08F700A0
:101D4A009131F9218D3176082100DD005D08E90025
:101D5A0066306706031DFF2E20006C0886000130DE
:101D6A008700403F2100D900413FDA00590884002A
:101D7A005A0885000008DB005B08EA0020006C08AE
:101D8A008600013087000130810741310318810A3A
:101D9A006D08860001308700010884000130850043
:101DAA0004308107003F2100E300013FE400023FC5
:101DBA00E500033FE60066082000E600210065080A
:101DCA002000E500210064082000E40021006308E7
:101DDA002000E30021006A08D90059082000E70022
:101DEA0021006B088131912120006408ED0063080D
:101DFA00EC0008001630F0009830F1000230F200D2
:101E0A000030F300E730933169238D317008710493
:101E1A00031D9F2F20006C08860001308700403F79
:101E2A002100D900413FDA000130590784005A08DD
:101E3A0003185A0A85000008DB005B08EA00200044
:101E4A006C08860001308700403F2100D900413FDD
:101E5A00DA00590884005A0885000008BF3EDB00F2
:101E6A00FF3003180030DC0000305C021A3003191E
:101E7A005B020318422F0130432F0030DD00DE01E0
:101E8A005D08E1005E08E200610862040319612F3F
:101E9A0020006D08860001308700010884000130A7
:101EAA00850004308107003F2100E300013FE40080
:101EBA00023FE500033F742F20006D0886000130C1
:101ECA008700010884000130850004308107003F43
:101EDA002100E300013FE400023FE500033FE60082
:101EEA0020006C08860001308700023081074131EA
:101EFA000318810A210066082000E600210065080F
:101F0A002000E500210064082000E40021006308A5
:101F1A002000E30021006A08D90059082000E700E0
:101F2A0021006B088131912120006408ED006308CB
:101F3A00EC00080020006C08860001308700403F52
:101F4A002100D900413FDA00590884005A08850067
:101F5A001200253A031DCC2F20006C0886000130A0
:101F6A0087000130810741310318810A2530F200C8
:101F7A000030F30021006B08D9005908F4009231AF
:101F8A00A72201302000EC000030ED0008002000FC
:101F9A006C0886000130870001308107413103183F
:101FAA00810AEC01ED01080020006C08860001306E
:101FBA008700403F2100D900413FDA0059088400D8
:101FCA005A0885000008DB00DC015B08F2005C08A7
:101FDA00F3006B08DD005D08F4009231A7228D3111
:101FEA0020006C08860001308700013081074131EA
:061FFA000318810AC62F46
:1020E60021009D140800F10071089031A02008001D
:1020F60021001C08F1001B08F000080071082200EE
:10210600DF007008DE00080071082200E300700896
:10211600E200080071082200E1007008E0000800F3
:10212600640080010131890B942800346A30210053
:1021360099009801220096010800F0002000101E68
:10214600A128700823009A000800803021009E0014
:102156009F019B019C0101309D00080073087204D9
:1021660071047004031908008030F30608008030FB
:102176002C0099009B309800C0309700CF30250086
:102186009E05080020009E019D019F019B309B003B
:102196009A019010F0309C00080025302100EF00D5
:1021A6006F082200AB0024082100ED00220023085E
:1021B6002100EC002B30EF006F08EE00003092316A
:1021C600732208007008D03EF200FF30713DF30024
:1021D600003073020A30031972020318F428013022
:1021E600F5280030F400F5017408F0007508F100D8
:1021F60008007008BF3EF200FF30713DF30000306A
:1022060073021A300319720203180B2901300C29C4
:102216000030F400F5017408F0007508F1000800BC
:10222600F4007408F2007208F300740886000130A6
:1022360087000108031924290130F2007208F40707
:10224600182973087402F000F101F01BF10308006D
:102256007C082000A1007B08A000A136A00CA136B6
:10226600A00C20082C0098007B0803392000A00051
:102276000530A035FF3E031D3C2920352C00970074
:102286000800F401F501701C4C297208F407730864
:10229600F53D0130F235F30D890B4D290130F1364C
:1022A600F00C890B522970087104031D4629750824
:1022B600F1007408F0000800F401F40A20307006FA
:1022C6007104031973297008F73EF200FF30713D5F
:1022D600F300003073020530031972020318F4018B
:1022E6007408F200F3017208F0007308F1000800A8
:1022F600F800F401F5017008F200F3017208F60027
:102306007308F700781C8B297608F4077708F53DE3
:102316000130F635F70D890B8C290310F80C780877
:10232600031D85297508F1007408F0000800803047
:102336002000DE066208CA006108C9006008C800FD
:102346005F08C7005E08CE005D08CD005C08CC00C3
:102356005B08CB008931862120004A08DE00490847
:10236600DD004808DC004708DB000800F7007108BC
:10237600F5007008F4007708F2007208F600760897
:10238600860001308700F60A7508F3007408F2002B
:10239600F40A0319F50A7208840073088500000818
:1023A600C03F890803190800C229083023009F008E
:1023B60090309D0024309E0067309B009C010030C9
:1023C600F0000030F1009031872091310030F000AC
:1023D6000030F10090318D2091310030F000003056
:1023E600F100903181202200DD0108007608BF3E11
:1023F600F800FF30773DF900003079021A300319F2
:1024060078020318082A0130092A0030FA00FB0175
:102416007A08FC007B08FD007C087D04031908008F
:1024260020307604F60000307704F700080020001C
:10243600A300A101A20121082307FB007B08860057
:10244600013087000108FC007C08A0002008031961
:1024560008002008FB00FC017B08F2007C08F30062
:102466007A08FD007D08F4009231A72292310130EE
:102476002000A1070030A23D1E2A22008C018D01FA
:102486008E01373021008C0030308D00FF308E00F9
:102496004F3023008E0030308D0017308C00240022
:1024A6008D018C018E012100951725008C018D016F
:1024B6008E01373026008C00F0308D00FF308E0004
:1024C6003F3027008C00F0308D00FF308E00173033
:1024D6003C00A4000E303D009E0012309F00080014
:1024E6002200A00021006D082200A20021006C0835
:1024F6002200A100D301D40121088400220885000E
:10250600120003199F2A21302000EE006E08EC000D
:1025160021006E082000EF006F08ED002200200861
:102526008D319425923120006C082200D3072000BB
:102536006D082200D43D7F2A54082100ED002200B8
:1025460053082100EC0008007408031D7408031DDD
:10255600B02A72089031762008007408033E86007F
:102566008701160001040319D32A7408033E860066
:102576008701403FF500413FF600740A8600870157
:10258600403FF700413FF8007808803AF9007608A6
:10259600803A7902031DD12A7508770203180800CC
:1025A600740A860087010130810741310318810AC8
:1025B6000800F601F31FE62AF209F309F20A0319E5
:1025C600F30AF601F60AF11FED2AF009F109F00AFD
:1025D6000319F10A700871040319142BF501F50AA1
:1025E600F11BFF2A0130F035F10D890BF62A013077
:1025F600F4007408F507F32A71087302031D052B0E
:1026060070087202031C0B2B7008F2027108F33B70
:102616000130F136F00C890B0C2B0130F502031D4D
:10262600FF2A760803191C2BF209F309F20A03198B
:10263600F30A7308F1007208F00008000030700514
:10264600F80000307105F90080307205FA007F301D
:102656007305FB007B087A0479047804031D3B2B81
:102666000030F3000030F2000030F1000030F000DE
:1026760000307405F80000307505F90080307605E5
:10268600FA007F307705FB007B087A04790478042A
:10269600031D552B0030F7000030F6000030F50022
:1026A6000030F40077087306031D632B7608720664
:1026B600031D632B75087106031D632B74087006D2
:1026C6000319672B0310080003140800F5007508AA
:1026D600F4007408F8007108F7007008F60001307D
:1026E600F2020030F33B720A031DA32B730A031D8B
:1026F600A32BF001F1010800760884007708850015
:1027060012000319A92B720873040319A92B760862
:102716008400770885000008F400780886008701A1
:1027260001087406031DA92B0130F4007408F8078C
:102736000130F6070030F73D0130F2020030F33B7E
:102746007808860087010108031D7F2B780886001C
:102756008701760884007708850000080102F000EA
:10276600F101031CF10308002000AC002200591CF3
:10277600C52B20002C08A7002708FA002408923150
:102786001A2293312000A61BCD2B2608AB00250864
:10279600AA00CF2BAA01AB01A801A9012908803AFA
:1027A600A7002B08803A2702031DDB2B2A082802E4
:1027B6000318EF2B2030F2000030F30020002C0825
:1027C600A7002708F4009231A72293310130200098
:1027D600A8070030A93DD12B22005918FB2B200059
:1027E6002C08A7002708FA00240892311A229331F0
:1027F600200024089131132120002A087007A40024
:102806002B08713DA5000800F601F11F112CF009F7
:10281600F109F00A0319F10AF601F60AF31F1C2C56
:10282600F209F309F20A0319F30A0130F4007408F5
:10283600F606F701F8017008710403194B2CF5012F
:10284600F50AF11B302C0130F035F10D890B272CE0
:102856000130F4007408F507242C0130F735F80D23
:10286600890B312C71087302031D3B2C7008720210
:10287600031C422C7008F2027108F33B77140130F6
:10288600F136F00C890B432C0130F502031D302C78
:1028960076080319532CF709F809F70A0319F80AF9
:1028A6007808F1007708F00008000310720D730D28
:1028B600F4007408FA007A08031D6A2C0030F3004D
:1028C6000030F2000030F1000030F000080070081F
:1028D600F4007108F5007208F6007308F7001F305F
:1028E600F736F60CF50CF40C890B732C7408F8000B
:1028F6007808F900F217FF30F005FF30F105FF30D8
:10290600F2050030F3059630FA02FA1F9D2C7A087C
:10291600803A973E031C612C0130F336F20CF10C21
:10292600F00C890B902C0130F4007408FA07031997
:10293600AE2C8F2C20307A020318612C7A080319EA
:10294600AE2C0130F035F10DF20DF30D890BA52CEF
:102956000130FA02A12C790803190800F009F109DF
:10296600F209F309F00A0319F10A0319F20A031925
:10297600F30A0800220052082000A5002200510890
:102986002000A400220050082000A30022004F08C7
:102996002000A2007308A5007208A4007108A30015
:1029A6007008A2002208F4002308F5002408F600A7
:1029B6002508F7001730F736F60CF50CF40C890BE2
:1029C600DE2CFF307405A00000307505A10020083C
:1029D6002104031D0D2D2208F4002308F500240808
:1029E600F6002508F7000130F435F50DF60DF70D64
:1029F600890BF72C7708760475047404031D082DDB
:102A06000230F0000030F10008000330F000003022
:102A1600F1000800200A2104031D302D2208F400CD
:102A26002308F5002408F6002508F7000930F435D8
:102A3600F50DF60DF70D890B1A2D7708760475043A
:102A46007404031D282D0130292D0030F800F901EA
:102A56007808F0007908F10008000430F000003032
:102A6600F1000800003020004705CF00003048057F
:102A7600D00080304905D1007F304A05D200520887
:102A8600510450044F04031D502D0030CA0000307D
:102A9600C9000030C8000030C70000304B05CF0029
:102AA60000304C05D00080304D05D1007F304E05FA
:102AB600D2005208510450044F04031D6A2D003001
:102AC600CE000030CD000030CC000030CB00CA1F55
:102AD600842D0030CF000030D0000030D10080308F
:102AE600D2004708CF024808D03B4908D13B4A08E4
:102AF600D23B5208CA005108C9005008C8004F0806
:102B0600C700CE1F9E2D0030CF000030D000003011
:102B1600D1008030D2004B08CF024C08D03B4D0884
:102B2600D13B4E08D23B5208CE005108CD0050088A
:102B3600CC004F08CB008030CA068030CE064E0847
:102B46004A02031D08004D084902031D08004C08EF
:102B56004802031D08004B0847020800F8007808E1
:102B6600031DF31FC62D7009FA007109FB007209D7
:102B7600FC007309FD00FA0A0319FB0A0319FC0A93
:102B86000319FD0ACE2D7308FD007208FC007108BA
:102B9600FB007008FA007308720471047004031DC8
:102BA600DD2D0030F3000030F2000030F10000307F
:102BB600F00008009630F4007408F900FE307D0538
:102BC6000319042E0130F4007408F9070130FD36AC
:102BD600FC0CFB0CFA0C890BEA2DE12D0130F400FC
:102BE6007408F9070130FA070030FB3D0030FC3D60
:102BF6000030FD3D0130FD36FC0CFB0CFA0C890B58
:102C0600FE2DFF307D050319162EF12D02307902B7
:102C1600031C182E0130F9020130FA35FB0DFC0DAC
:102C2600FD0D890B102EFC1F092E7918222EFF3060
:102C3600FA05FF30FB057F30FC05FF30FD0503106C
:102C4600F90C7908F400F501F601F7011830F435AE
:102C5600F50DF60DF70D890B2A2E7408FA04750882
:102C6600FB047608FC047708FD047808031DF31FAF
:102C76003D2EFD177D08F3007C08F2007B08F1006D
:102C86007A08F00008008031052096319031A8209E
:102C9600963100302200C2000030C1000030C00072
:102CA6000030BF000030C6000030C5000030C40050
:102CB6000030C30000308831002096312200C9015F
:102CC600CA012200C701C8019031732096319031A4
:102CD6007B20963171082200AE007008AD004208D4
:102CE6002000CA00220041082000C9002200400836
:102CF6002000C80022003F082000C70022002D083F
:102D0600F0002E08F100F201F30100309531B125F3
:102D1600963173082000CE007208CD007108CC00F1
:102D26007008CB0089318621963120004A0822009E
:102D3600C200200049082200C100200048082200E5
:102D4600C000200047082200BF000130C70700303E
:102D5600C83D4808803AAC0080302C02031DB52ED1
:102D66000A304702031C672E4130F3002030F20080
:102D76000030F1000030F00022004208F700410860
:102D8600F6004008F5003F08F40080311720963120
:102D960073082200BA007208B9007108B8007008FA
:102DA600B70041302000CA008830C9000030C80092
:102DB6000030C7004230B0006830AF000030AE00CF
:102DC6000030AD004430F3007F30F200C030F10037
:102DD6000030F00022003A08F7003908F6003808FB
:102DE600F5003708F400803117209631730820006B
:102DF600B4007208B3007108B2007008B1008B31DC
:102E06006823963120003008CE002F08CD002E080A
:102E1600CC002D08CB0089318621963120004A0846
:102E26002200B200200049082200B1002000480814
:102E36002200B000200047082200AF003208200020
:102E4600CA00220031082000C900220030082000F4
:102E5600C80022002F082000C700220046082000D4
:102E6600CE00220045082000CD00220044082000A4
:102E7600CC00220043082000CB0089318621963100
:102E860020004A082200C600200049082200C5008A
:102E9600200048082200C400200047082200C30082
:102EA6000030C2000030C1000030C0000030BF005A
:102EB6000130C9070030CA3D4A08803AAC0080306C
:102EC6002C02031D682F14304902031C642E413066
:102ED600F300A030F2000030F1000030F0002200D4
:102EE6004608F7004508F6004408F5004308F400D4
:102EF60080311720963173082200BE007208BD008B
:102F06007108BC007008BB0042302000B000C83019
:102F1600AF000030AE000030AD004230F300683044
:102F2600F2000030F1000030F000C130CA008830F5
:102F3600C9000030C8000030C70022003E0820004B
:102F4600CE0022003D082000CD0022003C082000D3
:102F5600CC0022003B082000CB0089318621963127
:102F660020004A08F7004908F6004808F500470817
:102F7600F40080311720963173082000B4007208DF
:102F8600B3007108B2007008B1008B316823963126
:102F9600200030082200B60020002F082200B500CD
:102FA60020002E082200B40020002D082200B300C5
:102FB6000030A3009830A4003608A8003508A70002
:102FC6003408A6003308A5009031D020963122009F
:102FD6003E08F3003D08F2003C08F1003B08F00013
:102FE6009431582496317108FC007008FB00913129
:102FF6002B21963100302200562E25342E343434BF
:1030060066340A34003449344E34463400344E347F
:1030160041344E34003469346E34663400346E34D0
:0C30260061346E3400346C3466340034C5
:020000040001F9
:06000E00FC3FFF1E9F3FB6
:00000001FF
